{
  "_format": "hh-sol-artifact-1",
  "contractName": "NFTMarket",
  "sourceName": "contracts/NFTMarket.sol",
  "abi": [
    {
      "inputs": [
        {
          "internalType": "uint256",
          "name": "updateInterval",
          "type": "uint256"
        }
      ],
      "stateMutability": "nonpayable",
      "type": "constructor"
    },
    {
      "anonymous": false,
      "inputs": [
        {
          "indexed": true,
          "internalType": "uint256",
          "name": "itemId",
          "type": "uint256"
        },
        {
          "indexed": true,
          "internalType": "address",
          "name": "nftContract",
          "type": "address"
        },
        {
          "indexed": true,
          "internalType": "uint256",
          "name": "tokenId",
          "type": "uint256"
        },
        {
          "indexed": false,
          "internalType": "address",
          "name": "seller",
          "type": "address"
        },
        {
          "indexed": false,
          "internalType": "address",
          "name": "owner",
          "type": "address"
        },
        {
          "indexed": false,
          "internalType": "uint256",
          "name": "price",
          "type": "uint256"
        },
        {
          "indexed": false,
          "internalType": "bool",
          "name": "sold",
          "type": "bool"
        },
        {
          "indexed": false,
          "internalType": "bool",
          "name": "isBuy",
          "type": "bool"
        },
        {
          "indexed": false,
          "internalType": "string",
          "name": "expiredDate",
          "type": "string"
        }
      ],
      "name": "MarketItemCreated",
      "type": "event"
    },
    {
      "inputs": [
        {
          "internalType": "bytes",
          "name": "checkData",
          "type": "bytes"
        }
      ],
      "name": "checkUpkeep",
      "outputs": [
        {
          "internalType": "bool",
          "name": "upkeepNeeded",
          "type": "bool"
        },
        {
          "internalType": "bytes",
          "name": "performData",
          "type": "bytes"
        }
      ],
      "stateMutability": "nonpayable",
      "type": "function"
    },
    {
      "inputs": [
        {
          "internalType": "address",
          "name": "nftContract",
          "type": "address"
        },
        {
          "internalType": "uint256",
          "name": "tokenId",
          "type": "uint256"
        },
        {
          "internalType": "uint256",
          "name": "price",
          "type": "uint256"
        }
      ],
      "name": "createMarketItem",
      "outputs": [],
      "stateMutability": "payable",
      "type": "function"
    },
    {
      "inputs": [
        {
          "internalType": "address",
          "name": "nftContract",
          "type": "address"
        },
        {
          "internalType": "uint256",
          "name": "itemId",
          "type": "uint256"
        },
        {
          "internalType": "uint256",
          "name": "pType",
          "type": "uint256"
        },
        {
          "internalType": "string",
          "name": "expiredDate",
          "type": "string"
        },
        {
          "internalType": "uint256",
          "name": "timeToExpire",
          "type": "uint256"
        }
      ],
      "name": "createMarketSale",
      "outputs": [],
      "stateMutability": "payable",
      "type": "function"
    },
    {
      "inputs": [
        {
          "internalType": "uint256",
          "name": "",
          "type": "uint256"
        }
      ],
      "name": "expireTimeStamp",
      "outputs": [
        {
          "internalType": "uint256",
          "name": "",
          "type": "uint256"
        }
      ],
      "stateMutability": "view",
      "type": "function"
    },
    {
      "inputs": [],
      "name": "fetchItemsCreated",
      "outputs": [
        {
          "components": [
            {
              "internalType": "uint256",
              "name": "itemId",
              "type": "uint256"
            },
            {
              "internalType": "address",
              "name": "nftContract",
              "type": "address"
            },
            {
              "internalType": "uint256",
              "name": "tokenId",
              "type": "uint256"
            },
            {
              "internalType": "address payable",
              "name": "seller",
              "type": "address"
            },
            {
              "internalType": "address payable",
              "name": "owner",
              "type": "address"
            },
            {
              "internalType": "uint256",
              "name": "price",
              "type": "uint256"
            },
            {
              "internalType": "bool",
              "name": "sold",
              "type": "bool"
            },
            {
              "internalType": "bool",
              "name": "isBuy",
              "type": "bool"
            },
            {
              "internalType": "string",
              "name": "expiredDate",
              "type": "string"
            }
          ],
          "internalType": "struct NFTMarket.MarketItem[]",
          "name": "",
          "type": "tuple[]"
        }
      ],
      "stateMutability": "view",
      "type": "function"
    },
    {
      "inputs": [],
      "name": "fetchMarketItems",
      "outputs": [
        {
          "components": [
            {
              "internalType": "uint256",
              "name": "itemId",
              "type": "uint256"
            },
            {
              "internalType": "address",
              "name": "nftContract",
              "type": "address"
            },
            {
              "internalType": "uint256",
              "name": "tokenId",
              "type": "uint256"
            },
            {
              "internalType": "address payable",
              "name": "seller",
              "type": "address"
            },
            {
              "internalType": "address payable",
              "name": "owner",
              "type": "address"
            },
            {
              "internalType": "uint256",
              "name": "price",
              "type": "uint256"
            },
            {
              "internalType": "bool",
              "name": "sold",
              "type": "bool"
            },
            {
              "internalType": "bool",
              "name": "isBuy",
              "type": "bool"
            },
            {
              "internalType": "string",
              "name": "expiredDate",
              "type": "string"
            }
          ],
          "internalType": "struct NFTMarket.MarketItem[]",
          "name": "",
          "type": "tuple[]"
        }
      ],
      "stateMutability": "view",
      "type": "function"
    },
    {
      "inputs": [],
      "name": "fetchMyNFTs",
      "outputs": [
        {
          "components": [
            {
              "internalType": "uint256",
              "name": "itemId",
              "type": "uint256"
            },
            {
              "internalType": "address",
              "name": "nftContract",
              "type": "address"
            },
            {
              "internalType": "uint256",
              "name": "tokenId",
              "type": "uint256"
            },
            {
              "internalType": "address payable",
              "name": "seller",
              "type": "address"
            },
            {
              "internalType": "address payable",
              "name": "owner",
              "type": "address"
            },
            {
              "internalType": "uint256",
              "name": "price",
              "type": "uint256"
            },
            {
              "internalType": "bool",
              "name": "sold",
              "type": "bool"
            },
            {
              "internalType": "bool",
              "name": "isBuy",
              "type": "bool"
            },
            {
              "internalType": "string",
              "name": "expiredDate",
              "type": "string"
            }
          ],
          "internalType": "struct NFTMarket.MarketItem[]",
          "name": "",
          "type": "tuple[]"
        }
      ],
      "stateMutability": "view",
      "type": "function"
    },
    {
      "inputs": [],
      "name": "getListingPrice",
      "outputs": [
        {
          "internalType": "uint256",
          "name": "",
          "type": "uint256"
        }
      ],
      "stateMutability": "view",
      "type": "function"
    },
    {
      "inputs": [],
      "name": "interval",
      "outputs": [
        {
          "internalType": "uint256",
          "name": "",
          "type": "uint256"
        }
      ],
      "stateMutability": "view",
      "type": "function"
    },
    {
      "inputs": [
        {
          "internalType": "bytes",
          "name": "performData",
          "type": "bytes"
        }
      ],
      "name": "performUpkeep",
      "outputs": [],
      "stateMutability": "nonpayable",
      "type": "function"
    },
    {
      "inputs": [
        {
          "internalType": "uint256",
          "name": "",
          "type": "uint256"
        }
      ],
      "name": "storedItemIds",
      "outputs": [
        {
          "internalType": "uint256",
          "name": "",
          "type": "uint256"
        }
      ],
      "stateMutability": "view",
      "type": "function"
    },
    {
      "inputs": [
        {
          "internalType": "uint256",
          "name": "",
          "type": "uint256"
        }
      ],
      "name": "storedNftContract",
      "outputs": [
        {
          "internalType": "address",
          "name": "",
          "type": "address"
        }
      ],
      "stateMutability": "view",
      "type": "function"
    },
    {
      "inputs": [
        {
          "internalType": "uint256",
          "name": "",
          "type": "uint256"
        }
      ],
      "name": "storedOwnerAddress",
      "outputs": [
        {
          "internalType": "address",
          "name": "",
          "type": "address"
        }
      ],
      "stateMutability": "view",
      "type": "function"
    },
    {
      "inputs": [
        {
          "internalType": "uint256",
          "name": "",
          "type": "uint256"
        }
      ],
      "name": "storedTokenId",
      "outputs": [
        {
          "internalType": "uint256",
          "name": "",
          "type": "uint256"
        }
      ],
      "stateMutability": "view",
      "type": "function"
    }
  ],
  "bytecode": "0x60a06040526658d15e176280006009553480156200001c57600080fd5b506040516200310c3803806200310c8339818101604052810190620000429190620000b1565b600160008190555033600860006101000a81548173ffffffffffffffffffffffffffffffffffffffff021916908373ffffffffffffffffffffffffffffffffffffffff16021790555080608081815250505062000101565b600081519050620000ab81620000e7565b92915050565b600060208284031215620000c457600080fd5b6000620000d4848285016200009a565b91505092915050565b6000819050919050565b620000f281620000dd565b8114620000fe57600080fd5b50565b608051612fef6200011d60003960006116d90152612fef6000f3fe6080604052600436106100dd5760003560e01c80636e04ff0d1161007f578063947a36fb11610059578063947a36fb146102da578063ebbbd82a14610305578063ebd9cfe014610342578063f064c32e1461035e576100dd565b80636e04ff0d146102225780636ec45a34146102605780637877e6451461029d576100dd565b806321500800116100bb57806321500800146101635780633d75ea01146101a05780634585e33b146101dd57806358eb2df514610206576100dd565b80630f08efe0146100e257806312e855851461010d578063202e374014610138575b600080fd5b3480156100ee57600080fd5b506100f7610389565b6040516101049190612989565b60405180910390f35b34801561011957600080fd5b50610122610763565b60405161012f9190612a7b565b60405180910390f35b34801561014457600080fd5b5061014d61076d565b60405161015a9190612989565b60405180910390f35b34801561016f57600080fd5b5061018a600480360381019061018591906125ad565b610bcb565b6040516101979190612a7b565b60405180910390f35b3480156101ac57600080fd5b506101c760048036038101906101c291906125ad565b610bef565b6040516101d49190612a7b565b60405180910390f35b3480156101e957600080fd5b5061020460048036038101906101ff9190612568565b610c13565b005b610220600480360381019061021b919061248a565b6111f6565b005b34801561022e57600080fd5b5061024960048036038101906102449190612568565b6115ba565b6040516102579291906129ab565b60405180910390f35b34801561026c57600080fd5b50610287600480360381019061028291906125ad565b611659565b60405161029491906128d1565b60405180910390f35b3480156102a957600080fd5b506102c460048036038101906102bf91906125ad565b611698565b6040516102d191906128d1565b60405180910390f35b3480156102e657600080fd5b506102ef6116d7565b6040516102fc9190612a7b565b60405180910390f35b34801561031157600080fd5b5061032c600480360381019061032791906125ad565b6116fb565b6040516103399190612a7b565b60405180910390f35b61035c600480360381019061035791906124d9565b61171f565b005b34801561036a57600080fd5b50610373611ba3565b6040516103809190612989565b60405180910390f35b606060006103976001612001565b905060006103a56002612001565b6103af6001612001565b6103b99190612bf5565b90506000808267ffffffffffffffff8111156103fe577f4e487b7100000000000000000000000000000000000000000000000000000000600052604160045260246000fd5b60405190808252806020026020018201604052801561043757816020015b610424612239565b81526020019060019003908161041c5790505b50905060005b8481101561075857600073ffffffffffffffffffffffffffffffffffffffff16600a600060018461046e9190612b6e565b815260200190815260200160002060040160009054906101000a900473ffffffffffffffffffffffffffffffffffffffff1673ffffffffffffffffffffffffffffffffffffffff161415610745576000600a60006001846104cf9190612b6e565b81526020019081526020016000206000015490506000600a600083815260200190815260200160002090508060405180610120016040529081600082015481526020016001820160009054906101000a900473ffffffffffffffffffffffffffffffffffffffff1673ffffffffffffffffffffffffffffffffffffffff1673ffffffffffffffffffffffffffffffffffffffff168152602001600282015481526020016003820160009054906101000a900473ffffffffffffffffffffffffffffffffffffffff1673ffffffffffffffffffffffffffffffffffffffff1673ffffffffffffffffffffffffffffffffffffffff1681526020016004820160009054906101000a900473ffffffffffffffffffffffffffffffffffffffff1673ffffffffffffffffffffffffffffffffffffffff1673ffffffffffffffffffffffffffffffffffffffff168152602001600582015481526020016006820160009054906101000a900460ff161515151581526020016006820160019054906101000a900460ff1615151515815260200160078201805461066d90612cc5565b80601f016020809104026020016040519081016040528092919081815260200182805461069990612cc5565b80156106e65780601f106106bb576101008083540402835291602001916106e6565b820191906000526020600020905b8154815290600101906020018083116106c957829003601f168201915b505050505081525050848681518110610728577f4e487b7100000000000000000000000000000000000000000000000000000000600052603260045260246000fd5b60200260200101819052506001856107409190612b6e565b945050505b808061075090612d28565b91505061043d565b508094505050505090565b6000600954905090565b6060600061077b6001612001565b905060008060005b83811015610824573373ffffffffffffffffffffffffffffffffffffffff16600a60006001846107b39190612b6e565b815260200190815260200160002060040160009054906101000a900473ffffffffffffffffffffffffffffffffffffffff1673ffffffffffffffffffffffffffffffffffffffff1614156108115760018361080e9190612b6e565b92505b808061081c90612d28565b915050610783565b5060008267ffffffffffffffff811115610867577f4e487b7100000000000000000000000000000000000000000000000000000000600052604160045260246000fd5b6040519080825280602002602001820160405280156108a057816020015b61088d612239565b8152602001906001900390816108855790505b50905060005b84811015610bc0573373ffffffffffffffffffffffffffffffffffffffff16600a60006001846108d69190612b6e565b815260200190815260200160002060040160009054906101000a900473ffffffffffffffffffffffffffffffffffffffff1673ffffffffffffffffffffffffffffffffffffffff161415610bad576000600a60006001846109379190612b6e565b81526020019081526020016000206000015490506000600a600083815260200190815260200160002090508060405180610120016040529081600082015481526020016001820160009054906101000a900473ffffffffffffffffffffffffffffffffffffffff1673ffffffffffffffffffffffffffffffffffffffff1673ffffffffffffffffffffffffffffffffffffffff168152602001600282015481526020016003820160009054906101000a900473ffffffffffffffffffffffffffffffffffffffff1673ffffffffffffffffffffffffffffffffffffffff1673ffffffffffffffffffffffffffffffffffffffff1681526020016004820160009054906101000a900473ffffffffffffffffffffffffffffffffffffffff1673ffffffffffffffffffffffffffffffffffffffff1673ffffffffffffffffffffffffffffffffffffffff168152602001600582015481526020016006820160009054906101000a900460ff161515151581526020016006820160019054906101000a900460ff16151515158152602001600782018054610ad590612cc5565b80601f0160208091040260200160405190810160405280929190818152602001828054610b0190612cc5565b8015610b4e5780601f10610b2357610100808354040283529160200191610b4e565b820191906000526020600020905b815481529060010190602001808311610b3157829003601f168201915b505050505081525050848681518110610b90577f4e487b7100000000000000000000000000000000000000000000000000000000600052603260045260246000fd5b6020026020010181905250600185610ba89190612b6e565b945050505b8080610bb890612d28565b9150506108a6565b508094505050505090565b60078181548110610bdb57600080fd5b906000526020600020016000915090505481565b60038181548110610bff57600080fd5b906000526020600020016000915090505481565b6000610c6483838080601f016020809104026020016040519081016040528093929190818152602001838380828437600081840152601f19601f82011690508083019250505050505050600061200f565b9050600060048281548110610ca2577f4e487b7100000000000000000000000000000000000000000000000000000000600052603260045260246000fd5b906000526020600020015490506000600a6000838152602001908152602001600020600501549050600a60008381526020019081526020016000206000808201600090556001820160006101000a81549073ffffffffffffffffffffffffffffffffffffffff021916905560028201600090556003820160006101000a81549073ffffffffffffffffffffffffffffffffffffffff02191690556004820160006101000a81549073ffffffffffffffffffffffffffffffffffffffff021916905560058201600090556006820160006101000a81549060ff02191690556006820160016101000a81549060ff0219169055600782016000610da391906122cb565b505060405180610120016040528083815260200160058581548110610df1577f4e487b7100000000000000000000000000000000000000000000000000000000600052603260045260246000fd5b9060005260206000200160009054906101000a900473ffffffffffffffffffffffffffffffffffffffff1673ffffffffffffffffffffffffffffffffffffffff16815260200160078581548110610e71577f4e487b7100000000000000000000000000000000000000000000000000000000600052603260045260246000fd5b9060005260206000200154815260200160068581548110610ebb577f4e487b7100000000000000000000000000000000000000000000000000000000600052603260045260246000fd5b9060005260206000200160009054906101000a900473ffffffffffffffffffffffffffffffffffffffff1673ffffffffffffffffffffffffffffffffffffffff168152602001600073ffffffffffffffffffffffffffffffffffffffff16815260200182815260200160001515815260200160011515815260200160405180602001604052806000815250815250600a60008481526020019081526020016000206000820151816000015560208201518160010160006101000a81548173ffffffffffffffffffffffffffffffffffffffff021916908373ffffffffffffffffffffffffffffffffffffffff1602179055506040820151816002015560608201518160030160006101000a81548173ffffffffffffffffffffffffffffffffffffffff021916908373ffffffffffffffffffffffffffffffffffffffff16021790555060808201518160040160006101000a81548173ffffffffffffffffffffffffffffffffffffffff021916908373ffffffffffffffffffffffffffffffffffffffff16021790555060a0820151816005015560c08201518160060160006101000a81548160ff02191690831515021790555060e08201518160060160016101000a81548160ff0219169083151502179055506101008201518160070190805190602001906110ac92919061230b565b50905050600383815481106110ea577f4e487b7100000000000000000000000000000000000000000000000000000000600052603260045260246000fd5b906000526020600020016000905560058381548110611132577f4e487b7100000000000000000000000000000000000000000000000000000000600052603260045260246000fd5b9060005260206000200160006101000a81549073ffffffffffffffffffffffffffffffffffffffff021916905560078381548110611199577f4e487b7100000000000000000000000000000000000000000000000000000000600052603260045260246000fd5b9060005260206000200160009055600483815481106111e1577f4e487b7100000000000000000000000000000000000000000000000000000000600052603260045260246000fd5b90600052602060002001600090555050505050565b6002600054141561123c576040517f08c379a000000000000000000000000000000000000000000000000000000000815260040161123390612a3b565b60405180910390fd5b600260008190555060008111611287576040517f08c379a000000000000000000000000000000000000000000000000000000000815260040161127e90612a5b565b60405180910390fd5b60095434146112cb576040517f08c379a00000000000000000000000000000000000000000000000000000000081526004016112c290612a1b565b60405180910390fd5b6112d56001612076565b60006112e16001612001565b90506040518061012001604052808281526020018573ffffffffffffffffffffffffffffffffffffffff1681526020018481526020013373ffffffffffffffffffffffffffffffffffffffff168152602001600073ffffffffffffffffffffffffffffffffffffffff16815260200183815260200160001515815260200160011515815260200160405180602001604052806000815250815250600a60008381526020019081526020016000206000820151816000015560208201518160010160006101000a81548173ffffffffffffffffffffffffffffffffffffffff021916908373ffffffffffffffffffffffffffffffffffffffff1602179055506040820151816002015560608201518160030160006101000a81548173ffffffffffffffffffffffffffffffffffffffff021916908373ffffffffffffffffffffffffffffffffffffffff16021790555060808201518160040160006101000a81548173ffffffffffffffffffffffffffffffffffffffff021916908373ffffffffffffffffffffffffffffffffffffffff16021790555060a0820151816005015560c08201518160060160006101000a81548160ff02191690831515021790555060e08201518160060160016101000a81548160ff0219169083151502179055506101008201518160070190805190602001906114de92919061230b565b509050508373ffffffffffffffffffffffffffffffffffffffff166323b872dd3330866040518463ffffffff1660e01b815260040161151f939291906128ec565b600060405180830381600087803b15801561153957600080fd5b505af115801561154d573d6000803e3d6000fd5b50505050828473ffffffffffffffffffffffffffffffffffffffff16827f28a87d0a1d0a41a9185ef529d56e3801051a0f13d0a4dd22bf4f965a75afad6733600087600060016040516115a4959493929190612923565b60405180910390a4506001600081905550505050565b600060606000805b60038054905081101561164d5760038181548110611609577f4e487b7100000000000000000000000000000000000000000000000000000000600052603260045260246000fd5b9060005260206000200154421061163a5760006116258261208c565b9050600081905080945060019350505061164d565b808061164590612d28565b9150506115c2565b50809250509250929050565b6005818154811061166957600080fd5b906000526020600020016000915054906101000a900473ffffffffffffffffffffffffffffffffffffffff1681565b600681815481106116a857600080fd5b906000526020600020016000915054906101000a900473ffffffffffffffffffffffffffffffffffffffff1681565b7f000000000000000000000000000000000000000000000000000000000000000081565b6004818154811061170b57600080fd5b906000526020600020016000915090505481565b60026000541415611765576040517f08c379a000000000000000000000000000000000000000000000000000000000815260040161175c90612a3b565b60405180910390fd5b60026000819055506000600a60008681526020019081526020016000206005015490506000600a60008781526020019081526020016000206002015490506000600a600088815260200190815260200160002060040160009054906101000a900473ffffffffffffffffffffffffffffffffffffffff169050823414611820576040517f08c379a0000000000000000000000000000000000000000000000000000000008152600401611817906129fb565b60405180910390fd5b600a600088815260200190815260200160002060030160009054906101000a900473ffffffffffffffffffffffffffffffffffffffff1673ffffffffffffffffffffffffffffffffffffffff166108fc349081150290604051600060405180830381858888f1935050505015801561189c573d6000803e3d6000fd5b508773ffffffffffffffffffffffffffffffffffffffff166323b872dd3033856040518463ffffffff1660e01b81526004016118da939291906128ec565b600060405180830381600087803b1580156118f457600080fd5b505af1158015611908573d6000803e3d6000fd5b5050505033600a600089815260200190815260200160002060040160006101000a81548173ffffffffffffffffffffffffffffffffffffffff021916908373ffffffffffffffffffffffffffffffffffffffff1602179055506001600a600089815260200190815260200160002060060160006101000a81548160ff0219169083151502179055506001861461199f5760006119a2565b60015b600a600089815260200190815260200160002060060160016101000a81548160ff02191690831515021790555084600a600089815260200190815260200160002060070190805190602001906119f992919061230b565b50611a046002612076565b600860009054906101000a900473ffffffffffffffffffffffffffffffffffffffff1673ffffffffffffffffffffffffffffffffffffffff166108fc6009549081150290604051600060405180830381858888f19350505050158015611a6e573d6000803e3d6000fd5b506000861415611b91576005889080600181540180825580915050600190039060005260206000200160009091909190916101000a81548173ffffffffffffffffffffffffffffffffffffffff021916908373ffffffffffffffffffffffffffffffffffffffff160217905550600384908060018154018082558091505060019003906000526020600020016000909190919091505560078290806001815401808255809150506001900390600052602060002001600090919091909150556006819080600181540180825580915050600190039060005260206000200160009091909190916101000a81548173ffffffffffffffffffffffffffffffffffffffff021916908373ffffffffffffffffffffffffffffffffffffffff1602179055505b50505060016000819055505050505050565b60606000611bb16001612001565b905060008060005b83811015611c5a573373ffffffffffffffffffffffffffffffffffffffff16600a6000600184611be99190612b6e565b815260200190815260200160002060030160009054906101000a900473ffffffffffffffffffffffffffffffffffffffff1673ffffffffffffffffffffffffffffffffffffffff161415611c4757600183611c449190612b6e565b92505b8080611c5290612d28565b915050611bb9565b5060008267ffffffffffffffff811115611c9d577f4e487b7100000000000000000000000000000000000000000000000000000000600052604160045260246000fd5b604051908082528060200260200182016040528015611cd657816020015b611cc3612239565b815260200190600190039081611cbb5790505b50905060005b84811015611ff6573373ffffffffffffffffffffffffffffffffffffffff16600a6000600184611d0c9190612b6e565b815260200190815260200160002060030160009054906101000a900473ffffffffffffffffffffffffffffffffffffffff1673ffffffffffffffffffffffffffffffffffffffff161415611fe3576000600a6000600184611d6d9190612b6e565b81526020019081526020016000206000015490506000600a600083815260200190815260200160002090508060405180610120016040529081600082015481526020016001820160009054906101000a900473ffffffffffffffffffffffffffffffffffffffff1673ffffffffffffffffffffffffffffffffffffffff1673ffffffffffffffffffffffffffffffffffffffff168152602001600282015481526020016003820160009054906101000a900473ffffffffffffffffffffffffffffffffffffffff1673ffffffffffffffffffffffffffffffffffffffff1673ffffffffffffffffffffffffffffffffffffffff1681526020016004820160009054906101000a900473ffffffffffffffffffffffffffffffffffffffff1673ffffffffffffffffffffffffffffffffffffffff1673ffffffffffffffffffffffffffffffffffffffff168152602001600582015481526020016006820160009054906101000a900460ff161515151581526020016006820160019054906101000a900460ff16151515158152602001600782018054611f0b90612cc5565b80601f0160208091040260200160405190810160405280929190818152602001828054611f3790612cc5565b8015611f845780601f10611f5957610100808354040283529160200191611f84565b820191906000526020600020905b815481529060010190602001808311611f6757829003601f168201915b505050505081525050848681518110611fc6577f4e487b7100000000000000000000000000000000000000000000000000000000600052603260045260246000fd5b6020026020010181905250600185611fde9190612b6e565b945050505b8080611fee90612d28565b915050611cdc565b508094505050505090565b600081600001549050919050565b600060208261201e9190612b6e565b83511015612061576040517f08c379a0000000000000000000000000000000000000000000000000000000008152600401612058906129db565b60405180910390fd5b60008260200184015190508091505092915050565b6001816000016000828254019250508190555050565b606060008214156120d4576040518060400160405280600181526020017f30000000000000000000000000000000000000000000000000000000000000008152509050612234565b600082905060005b600082146121065780806120ef90612d28565b915050600a826120ff9190612bc4565b91506120dc565b60008167ffffffffffffffff811115612148577f4e487b7100000000000000000000000000000000000000000000000000000000600052604160045260246000fd5b6040519080825280601f01601f19166020018201604052801561217a5781602001600182028036833780820191505090505b5090505b6000851461222d576001826121939190612bf5565b9150600a856121a29190612d71565b60306121ae9190612b6e565b60f81b8183815181106121ea577f4e487b7100000000000000000000000000000000000000000000000000000000600052603260045260246000fd5b60200101907effffffffffffffffffffffffffffffffffffffffffffffffffffffffffffff1916908160001a905350600a856122269190612bc4565b945061217e565b8093505050505b919050565b60405180610120016040528060008152602001600073ffffffffffffffffffffffffffffffffffffffff16815260200160008152602001600073ffffffffffffffffffffffffffffffffffffffff168152602001600073ffffffffffffffffffffffffffffffffffffffff16815260200160008152602001600015158152602001600015158152602001606081525090565b5080546122d790612cc5565b6000825580601f106122e95750612308565b601f0160209004906000526020600020908101906123079190612391565b5b50565b82805461231790612cc5565b90600052602060002090601f0160209004810192826123395760008555612380565b82601f1061235257805160ff1916838001178555612380565b82800160010185558215612380579182015b8281111561237f578251825591602001919060010190612364565b5b50905061238d9190612391565b5090565b5b808211156123aa576000816000905550600101612392565b5090565b60006123c16123bc84612abb565b612a96565b9050828152602081018484840111156123d957600080fd5b6123e4848285612c83565b509392505050565b6000813590506123fb81612f8b565b92915050565b60008083601f84011261241357600080fd5b8235905067ffffffffffffffff81111561242c57600080fd5b60208301915083600182028301111561244457600080fd5b9250929050565b600082601f83011261245c57600080fd5b813561246c8482602086016123ae565b91505092915050565b60008135905061248481612fa2565b92915050565b60008060006060848603121561249f57600080fd5b60006124ad868287016123ec565b93505060206124be86828701612475565b92505060406124cf86828701612475565b9150509250925092565b600080600080600060a086880312156124f157600080fd5b60006124ff888289016123ec565b955050602061251088828901612475565b945050604061252188828901612475565b935050606086013567ffffffffffffffff81111561253e57600080fd5b61254a8882890161244b565b925050608061255b88828901612475565b9150509295509295909350565b6000806020838503121561257b57600080fd5b600083013567ffffffffffffffff81111561259557600080fd5b6125a185828601612401565b92509250509250929050565b6000602082840312156125bf57600080fd5b60006125cd84828501612475565b91505092915050565b60006125e283836127ee565b905092915050565b6125f381612c3b565b82525050565b61260281612c29565b82525050565b61261181612c29565b82525050565b600061262282612afc565b61262c8185612b2a565b93508360208202850161263e85612aec565b8060005b8581101561267a578484038952815161265b85826125d6565b945061266683612b1d565b925060208a01995050600181019050612642565b50829750879550505050505092915050565b61269581612c4d565b82525050565b6126a481612c4d565b82525050565b60006126b582612b07565b6126bf8185612b3b565b93506126cf818560208601612c92565b6126d881612e5e565b840191505092915050565b60006126ee82612b12565b6126f88185612b4c565b9350612708818560208601612c92565b61271181612e5e565b840191505092915050565b6000612729601483612b5d565b915061273482612e6f565b602082019050919050565b600061274c604083612b5d565b915061275782612e98565b604082019050919050565b600061276f602483612b5d565b915061277a82612ee7565b604082019050919050565b6000612792600083612b5d565b915061279d82612f36565b600082019050919050565b60006127b5601f83612b5d565b91506127c082612f39565b602082019050919050565b60006127d8601c83612b5d565b91506127e382612f62565b602082019050919050565b60006101208301600083015161280760008601826128b3565b50602083015161281a60208601826125f9565b50604083015161282d60408601826128b3565b50606083015161284060608601826125ea565b50608083015161285360808601826125ea565b5060a083015161286660a08601826128b3565b5060c083015161287960c086018261268c565b5060e083015161288c60e086018261268c565b506101008301518482036101008601526128a682826126e3565b9150508091505092915050565b6128bc81612c79565b82525050565b6128cb81612c79565b82525050565b60006020820190506128e66000830184612608565b92915050565b60006060820190506129016000830186612608565b61290e6020830185612608565b61291b60408301846128c2565b949350505050565b600060c0820190506129386000830188612608565b6129456020830187612608565b61295260408301866128c2565b61295f606083018561269b565b61296c608083018461269b565b81810360a083015261297d81612785565b90509695505050505050565b600060208201905081810360008301526129a38184612617565b905092915050565b60006040820190506129c0600083018561269b565b81810360208301526129d281846126aa565b90509392505050565b600060208201905081810360008301526129f48161271c565b9050919050565b60006020820190508181036000830152612a148161273f565b9050919050565b60006020820190508181036000830152612a3481612762565b9050919050565b60006020820190508181036000830152612a54816127a8565b9050919050565b60006020820190508181036000830152612a74816127cb565b9050919050565b6000602082019050612a9060008301846128c2565b92915050565b6000612aa0612ab1565b9050612aac8282612cf7565b919050565b6000604051905090565b600067ffffffffffffffff821115612ad657612ad5612e2f565b5b612adf82612e5e565b9050602081019050919050565b6000819050602082019050919050565b600081519050919050565b600081519050919050565b600081519050919050565b6000602082019050919050565b600082825260208201905092915050565b600082825260208201905092915050565b600082825260208201905092915050565b600082825260208201905092915050565b6000612b7982612c79565b9150612b8483612c79565b9250827fffffffffffffffffffffffffffffffffffffffffffffffffffffffffffffffff03821115612bb957612bb8612da2565b5b828201905092915050565b6000612bcf82612c79565b9150612bda83612c79565b925082612bea57612be9612dd1565b5b828204905092915050565b6000612c0082612c79565b9150612c0b83612c79565b925082821015612c1e57612c1d612da2565b5b828203905092915050565b6000612c3482612c59565b9050919050565b6000612c4682612c59565b9050919050565b60008115159050919050565b600073ffffffffffffffffffffffffffffffffffffffff82169050919050565b6000819050919050565b82818337600083830152505050565b60005b83811015612cb0578082015181840152602081019050612c95565b83811115612cbf576000848401525b50505050565b60006002820490506001821680612cdd57607f821691505b60208210811415612cf157612cf0612e00565b5b50919050565b612d0082612e5e565b810181811067ffffffffffffffff82111715612d1f57612d1e612e2f565b5b80604052505050565b6000612d3382612c79565b91507fffffffffffffffffffffffffffffffffffffffffffffffffffffffffffffffff821415612d6657612d65612da2565b5b600182019050919050565b6000612d7c82612c79565b9150612d8783612c79565b925082612d9757612d96612dd1565b5b828206905092915050565b7f4e487b7100000000000000000000000000000000000000000000000000000000600052601160045260246000fd5b7f4e487b7100000000000000000000000000000000000000000000000000000000600052601260045260246000fd5b7f4e487b7100000000000000000000000000000000000000000000000000000000600052602260045260246000fd5b7f4e487b7100000000000000000000000000000000000000000000000000000000600052604160045260246000fd5b6000601f19601f8301169050919050565b7f736c6963696e67206f7574206f662072616e6765000000000000000000000000600082015250565b7f506c65617365207375626d6974207468652061736b696e67207072696365206960008201527f6e206f7264657220746f20636f6d706c65746520746865207075726368617365602082015250565b7f5072696365206d75737420626520657175616c20746f206c697374696e67207060008201527f7269636500000000000000000000000000000000000000000000000000000000602082015250565b50565b7f5265656e7472616e637947756172643a207265656e7472616e742063616c6c00600082015250565b7f5072696365206d757374206265206174206c6561737420312077656900000000600082015250565b612f9481612c29565b8114612f9f57600080fd5b50565b612fab81612c79565b8114612fb657600080fd5b5056fea2646970667358221220dcec3d1ee1c89366311635aa3bbf60a22b783f90c74e21d3af8fc303d5e767a764736f6c63430008040033",
  "linkReferences": {},
  "deployedLinkReferences": {}
}